:020000040000fa
:080000000001040000000000f3
:020000040000fa
:040008006002000092
:020000040000fa
:04000c00600200008e
:020000040000fa
:04001000600200008a
:020000040000fa
:040014006002000086
:020000040000fa
:040018006002000082
:020000040000fa
:04001c00600200007e
:020000040000fa
:04002000600200007a
:020000040000fa
:040024006002000076
:020000040000fa
:040028006002000072
:020000040000fa
:04002c00600200006e
:020000040000fa
:04003000600200006a
:020000040000fa
:040034006002000066
:020000040000fa
:040038006002000062
:020000040000fa
:04003c00600200005e
:020000040000fa
:04004000c8010000f3
:020000040000fa
:040044006002000056
:020000040000fa
:040048006002000052
:020000040000fa
:04004c00600200004e
:020000040000fa
:04005000600200004a
:020000040000fa
:040054006002000046
:020000040000fa
:040058006002000042
:020000040000fa
:04005c00600200003e
:020000040000fa
:04006000600200003a
:020000040000fa
:040064006002000036
:020000040000fa
:040068006002000032
:020000040000fa
:04006c00600200002e
:020000040000fa
:04007000600200002a
:020000040000fa
:040074006002000026
:020000040000fa
:040078006002000022
:020000040000fa
:04007c00600200001e
:020000040000fa
:04008000600200001a
:020000040000fa
:040084006002000016
:020000040000fa
:040088006002000012
:020000040000fa
:04008c00600200000e
:020000040000fa
:04009000600200000a
:020000040000fa
:040094006002000006
:020000040000fa
:040098006002000002
:020000040000fa
:04009c0060020000fe
:020000040000fa
:0400a00060020000fa
:020000040000fa
:0400a40060020000f6
:020000040000fa
:0400a80060020000f2
:020000040000fa
:0400ac0060020000ee
:020000040000fa
:0400b00060020000ea
:020000040000fa
:0400b40060020000e6
:020000040000fa
:0400b80060020000e2
:020000040000fa
:0400bc0060020000de
:020000040000fa
:0400c00060020000da
:020000040000fa
:0400c40060020000d6
:020000040000fa
:0400c80060020000d2
:020000040000fa
:0400cc0060020000ce
:020000040000fa
:0400d00060020000ca
:020000040000fa
:0400d40060020000c6
:020000040000fa
:0400d80060020000c2
:020000040000fa
:040108006002000091
:020000040000fa
:04010c00600200008d
:020000040000fa
:040110006002000089
:020000040000fa
:040114006002000085
:020000040000fa
:040118006002000081
:020000040000fa
:04011c00600200007d
:020000040000fa
:040120006002000079
:020000040000fa
:040124006002000075
:020000040000fa
:040128006002000071
:020000040000fa
:04012c00600200006d
:020000040000fa
:040130006002000069
:020000040000fa
:040134006002000065
:020000040000fa
:040138006002000061
:020000040000fa
:04013c00600200005d
:020000040000fa
:040140006002000059
:020000040000fa
:040144006002000055
:020000040000fa
:040148006002000051
:020000040000fa
:04014c00600200004d
:020000040000fa
:040150006002000049
:020000040000fa
:040154006002000045
:020000040000fa
:040158006002000041
:020000040000fa
:04015c00600200003d
:020000040000fa
:040160006002000039
:020000040000fa
:040164006002000035
:020000040000fa
:040168006002000031
:020000040000fa
:04016c00600200002d
:020000040000fa
:040170006002000029
:020000040000fa
:040174006002000025
:020000040000fa
:040178006002000021
:020000040000fa
:04017c00600200001d
:020000040000fa
:040180006002000019
:020000040000fa
:040184006002000015
:020000040000fa
:040188006002000011
:020000040000fa
:04018c00600200000d
:020000040000fa
:040190006002000009
:020000040000fa
:040194006002000005
:020000040000fa
:040198006002000001
:020000040000fa
:04019c0060020000fd
:020000040000fa
:0401a00060020000f9
:020000040000fa
:0401a40060020000f5
:020000040000fa
:0401a80060020000f1
:020000040000fa
:0401ac0060020000ed
:020000040000fa
:0401b00060020000e9
:020000040000fa
:0401b40060020000e5
:020000040000fa
:0401b80060020000e1
:020000040000fa
:0401bc0060020000dd
:020000040000fa
:0401c00060020000d9
:020000040000fa
:0401c40060020000d5
:020000040000fa
:0401c80060020000d1
:020000040000fa
:0401cc0060020000cd
:020000040000fa
:0401d00060020000c9
:020000040000fa
:0401d40060020000c5
:020000040000fa
:0401d80060020000c1
:020000040000fa
:100200000f8620000eff20000e0188000000000075
:10021000000020000000e000020032000001200089
:100220002002880014000700a70007000000e0007b
:1002300003003a00203a20000100200002003700ad
:100240000000200001002000810f7000010032003a
:1002500014000700000020000000e000020032004f
:1002600000000200000000004c020200000000003c
:100270000040da000000fe004440a9000000200019
:100280000000e0000300320000002000a001880010
:100290004440a800000006008a1f78008b1f7800e9
:1002a0000000060091018800800478000000eb0047
:1002b0001a003700e284440032a0b4009905ba0065
:1002c000e284440032a0b4009906ba00e2844400fb
:1002d00032a0b4000006eb00476fde00fd07b2005d
:1002e000636ce10003003a00ebff07000000eb0045
:1002f0000a003700606ce10004003a00005deb008a
:100300008b05e900fdff3e00040037006168e10055
:10031000010032000086eb000b00070019c7ba008d
:100320001905ba000e04e00003003a000a00e000dc
:10033000e0ff3a0000000600fe07b2009e018800c0
:100340008a047800f5ff3700395dba008b05e900b3
:100350000c003200295dba008b05e900080032006c
:100360000c00e00003003a00e284440032a0b40034
:10037000f5ff370019ddba008b05e900faff3a00f6
:100380008904e800e184440032a0b40000000600c3
:100390003600f800809fbe00829fbe00849fbe0092
:1003a000869fbe003400f80000002000a0018800f5
:1003b0000200fa000000eb00000f7800c04280004d
:1003c000300c8800001580000010a1000015880086
:1003d00000000000001580000000e000fdff32007a
:1003e000001480004400de00000f7800018520002a
:1003f0001e007800f1000700e04280000000e000ed
:1004000003003200418520001e007800a70007008d
:1004100060852000b8000700c0428800b14280001b
:1004200000c02000808f50000d003a00d1428000b3
:1004300010c0b300e18f500001003c000040eb0011
:100440008100e800d14288000004e000040032008e
:10045000e04280000000a200e04288005a28ef003d
:10046000001580000010a000001588002004800006
:100470000060a100200488000080fa003400f90028
:100480004f03be004f02be004f01be004f00be0032
:100490003600f900004006000000fa000b000700db
:1004a000a1002000008520004900070040852000b1
:1004b000670007001200070027000700ffff370052
:0c04c0000040da000000fe000000050013
:020000040000fa
:1004cc000000fa00c022ef00c622ef00cc22ef00a1
:1004dc00d222ef00de22ef00c222ef00c822ef0092
:1004ec00ce22ef00d422ef00e022ef000080fa00d1
:1004fc00000006000000fa003016800000c0a000ca
:10050c0030168800a022ef00a222ef001015800008
:10051c00101588003001200020158800c000200034
:10052c0030158800f0ff200040158800aa22ef004b
:10053c00c822ef00011580000000280001007000a7
:10054c00001588000080fa00000006000000fa0088
:10055c0060002000500c88001021ef00f00f2000ec
:10056c0060088800b1048000006020000100700069
:10057c00b0048800200480000060a10020048800e2
:10058c00600480000060a000600488009016800069
:10059c000010a100901688008621ef008821ef0042
:1005ac00001580000010a000001588008108800054
:1005bc000000280001007000800888000080fa000c
:1005cc00000006000800fa00200798003107980088
:1005dc0000002800100798009e0090003e0090003c
:1005ec0001007000100798002e0090001000780099
:1005fc00400288002e00900010007800f02fb00010
:10060c00500288001e00900030028800000000009c
:10061c000000eb00000f780004003700ae009000e3
:10062c000000eb00620007001e0fe800f01720002e
:10063c009e007800808f5000f8ff34000080fa0094
:10064c00000006000400fa00100798001e0090003d
:10065c0010007800f03fb000f04288000000eb0082
:10066c00000f7800080037001e0090009000780002
:10067c001e00780000004000008040008000eb006d
:10068c00010878001e0fe800f01f20009e00780083
:10069c00808f5000f4ff34000080fa000000060048
:1006ac000400fa00000f7800110798001e0090005b
:1006bc0090007800f0428000808f500003003600dc
:1006cc001e00900001c02000010878001e00900060
:1006dc00100078001e0878008080e8001e00900052
:1006ec00010878000080fa00000006000400fa00ff
:1006fc00100798001e00900010007800100f780072
:10070c008080e8001e009000010878001e00900018
:10071c0090007800f0428000808f5000030036007b
:10072c001e00900001c02000010878001e00780017
:08073c000080fa000000060035
:020000040000fa
:100744005008000002000000020000000009000040
:10075400520800000200000002000000000900002e
:10076400540800000200000002000000000c000019
:10077400560800000200000002000000000c000007
:100784005808000002000000000000005a080000a1
:1007940002000000000000005c08000002000000ed
:1007a40002000000010000005e08000002000000da
:0807b40000000000000000003d
:020000040000fa
:1007bc0011057800001d78008a08780000000600fa
:1007cc0080007800110578003a0078008a087800db
:0407dc000000060013
:020000040000fa
:0200000401f009
:04000000e3bf00005a
:020000040000fa
:0200000401f009
:04000400ff7f00007a
:020000040000fa
:0200000401f009
:04000800ffff0000f6
:020000040000fa
:0200000401f009
:04001400ffff0000ea
:020000040000fa
:0200000401f009
:04001800ffff0000e6
:00000001FF
