:020000040000fa
:080000000001040000000000f3
:020000040000fa
:04000800660200008c
:020000040000fa
:04000c006602000088
:020000040000fa
:040010006602000084
:020000040000fa
:040014006602000080
:020000040000fa
:04001800660200007c
:020000040000fa
:04001c006602000078
:020000040000fa
:040020006602000074
:020000040000fa
:040024006602000070
:020000040000fa
:04002800660200006c
:020000040000fa
:04002c006602000068
:020000040000fa
:040030006602000064
:020000040000fa
:040034006602000060
:020000040000fa
:04003800660200005c
:020000040000fa
:04003c006602000058
:020000040000fa
:040040006602000054
:020000040000fa
:040044006602000050
:020000040000fa
:04004800660200004c
:020000040000fa
:04004c006602000048
:020000040000fa
:040050006602000044
:020000040000fa
:04005400c8010000df
:020000040000fa
:04005800660200003c
:020000040000fa
:04005c006602000038
:020000040000fa
:040060006602000034
:020000040000fa
:040064006602000030
:020000040000fa
:04006800660200002c
:020000040000fa
:04006c006602000028
:020000040000fa
:040070006602000024
:020000040000fa
:040074006602000020
:020000040000fa
:04007800660200001c
:020000040000fa
:04007c006602000018
:020000040000fa
:040080006602000014
:020000040000fa
:040084006602000010
:020000040000fa
:04008800660200000c
:020000040000fa
:04008c006602000008
:020000040000fa
:040090006602000004
:020000040000fa
:040094006602000000
:020000040000fa
:0400980066020000fc
:020000040000fa
:04009c0066020000f8
:020000040000fa
:0400a00066020000f4
:020000040000fa
:0400a40066020000f0
:020000040000fa
:0400a80066020000ec
:020000040000fa
:0400ac0066020000e8
:020000040000fa
:0400b00066020000e4
:020000040000fa
:0400b40066020000e0
:020000040000fa
:0400b80066020000dc
:020000040000fa
:0400bc0066020000d8
:020000040000fa
:0400c00066020000d4
:020000040000fa
:0400c40066020000d0
:020000040000fa
:0400c80066020000cc
:020000040000fa
:0400cc0066020000c8
:020000040000fa
:0400d00066020000c4
:020000040000fa
:0400d40066020000c0
:020000040000fa
:0400d80066020000bc
:020000040000fa
:04010800660200008b
:020000040000fa
:04010c006602000087
:020000040000fa
:040110006602000083
:020000040000fa
:04011400660200007f
:020000040000fa
:04011800660200007b
:020000040000fa
:04011c006602000077
:020000040000fa
:040120006602000073
:020000040000fa
:04012400660200006f
:020000040000fa
:04012800660200006b
:020000040000fa
:04012c006602000067
:020000040000fa
:040130006602000063
:020000040000fa
:04013400660200005f
:020000040000fa
:04013800660200005b
:020000040000fa
:04013c006602000057
:020000040000fa
:040140006602000053
:020000040000fa
:04014400660200004f
:020000040000fa
:04014800660200004b
:020000040000fa
:04014c006602000047
:020000040000fa
:040150006602000043
:020000040000fa
:04015400660200003f
:020000040000fa
:04015800660200003b
:020000040000fa
:04015c006602000037
:020000040000fa
:040160006602000033
:020000040000fa
:04016400660200002f
:020000040000fa
:04016800660200002b
:020000040000fa
:04016c006602000027
:020000040000fa
:040170006602000023
:020000040000fa
:04017400660200001f
:020000040000fa
:04017800660200001b
:020000040000fa
:04017c006602000017
:020000040000fa
:040180006602000013
:020000040000fa
:04018400660200000f
:020000040000fa
:04018800660200000b
:020000040000fa
:04018c006602000007
:020000040000fa
:040190006602000003
:020000040000fa
:0401940066020000ff
:020000040000fa
:0401980066020000fb
:020000040000fa
:04019c0066020000f7
:020000040000fa
:0401a00066020000f3
:020000040000fa
:0401a40066020000ef
:020000040000fa
:0401a80066020000eb
:020000040000fa
:0401ac0066020000e7
:020000040000fa
:0401b00066020000e3
:020000040000fa
:0401b40066020000df
:020000040000fa
:0401b80066020000db
:020000040000fa
:0401bc0066020000d7
:020000040000fa
:0401c00066020000d3
:020000040000fa
:0401c40066020000cf
:020000040000fa
:0401c80066020000cb
:020000040000fa
:0401cc0066020000c7
:020000040000fa
:0401d00066020000c3
:020000040000fa
:0401d40066020000bf
:020000040000fa
:0401d80066020000bb
:020000040000fa
:100200000f8020000eff20000e018800000000007b
:10021000000020000000e000020032000001200089
:100220002002880014000700aa0007000000e00078
:1002300003003a0000002000010020000200370007
:100240000000200001002000810f7000010032003a
:1002500014000700000020000000e000020032004f
:100260000000020000000000ee010200000000009b
:100270000040da000000fe004440a9000000200019
:100280000000e0000300320000002000a001880010
:100290004440a800000006008a1f78008b1f7800e9
:1002a0000000060091018800800478000000eb0047
:1002b0001a003700e284440032a0b4009905ba0065
:1002c000e284440032a0b4009906ba00e2844400fb
:1002d00032a0b4000006eb00476fde00fd07b2005d
:1002e000636ce10003003a00ebff07000000eb0045
:1002f0000a003700606ce10004003a00005deb008a
:100300008b05e900fdff3e00040037006168e10055
:10031000010032000086eb000b00070019c7ba008d
:100320001905ba000e04e00003003a000a00e000dc
:10033000e0ff3a0000000600fe07b2009e018800c0
:100340008a047800f5ff3700395dba008b05e900b3
:100350000c003200295dba008b05e900080032006c
:100360000c00e00003003a00e284440032a0b40034
:10037000f5ff370019ddba008b05e900faff3a00f6
:100380008904e800e184440032a0b40000000600c3
:10039000801f78003400f80000002000a0018800d1
:1003a0000000fa0000000000001580000000e000de
:1003b000fdff3200a01680000000a200a0168800f9
:1003c0002004800000b0a100200488000080fa0012
:1003d0003400f9004f007800004006000200fa00e7
:1003e0000000eb00000f7800c022ef00c622ef00f3
:1003f000cc22ef00d222ef00de22ef00c222ef007b
:10040000c822ef00ce22ef00d422ef00e022ef005e
:100410000e000700010037001e0fe800703e2000ac
:100420009e007800808f5000fbff34000000eb003e
:10043000000f78007116800000002800008068001e
:100440007016880000000000f4ff37000000fa007a
:100450003016800000c0a00030168800a022ef00f7
:10046000400e200000158800a222ef001015800029
:10047000101588009012200020158800c00120006f
:10048000301588000000210040158800aa22ef00e6
:10049000c822ef00060007000115800000002800b8
:1004a00001007000001588000080fa0000000600be
:1004b0000000fa0000002600c00488000080200030
:1004c000600488000080fa00000006000040da00a6
:0804d0000000fe000000050021
:020000040000fa
:0200000401f009
:04000000e3bf00005a
:020000040000fa
:0200000401f009
:04000400ff7f00007a
:020000040000fa
:0200000401f009
:04000800ffff0000f6
:020000040000fa
:0200000401f009
:04001400ffff0000ea
:020000040000fa
:0200000401f009
:04001800ffff0000e6
:00000001FF
