:020000040000fa
:080000000001040000000000f3
:020000040000fa
:040008008202000070
:020000040000fa
:04000c00820200006c
:020000040000fa
:040010008202000068
:020000040000fa
:040014008202000064
:020000040000fa
:040018008202000060
:020000040000fa
:04001c00820200005c
:020000040000fa
:040020008202000058
:020000040000fa
:040024008202000054
:020000040000fa
:040028008202000050
:020000040000fa
:04002c00820200004c
:020000040000fa
:040030008202000048
:020000040000fa
:040034008202000044
:020000040000fa
:040038008202000040
:020000040000fa
:04003c00820200003c
:020000040000fa
:04004000c8010000f3
:020000040000fa
:040044008202000034
:020000040000fa
:040048008202000030
:020000040000fa
:04004c00820200002c
:020000040000fa
:040050008202000028
:020000040000fa
:04005400e4010000c3
:020000040000fa
:040058008202000020
:020000040000fa
:04005c00820200001c
:020000040000fa
:040060008202000018
:020000040000fa
:040064008202000014
:020000040000fa
:040068008202000010
:020000040000fa
:04006c00820200000c
:020000040000fa
:040070008202000008
:020000040000fa
:040074008202000004
:020000040000fa
:040078008202000000
:020000040000fa
:04007c0082020000fc
:020000040000fa
:0400800082020000f8
:020000040000fa
:0400840082020000f4
:020000040000fa
:0400880082020000f0
:020000040000fa
:04008c0082020000ec
:020000040000fa
:0400900082020000e8
:020000040000fa
:0400940082020000e4
:020000040000fa
:0400980082020000e0
:020000040000fa
:04009c0082020000dc
:020000040000fa
:0400a00082020000d8
:020000040000fa
:0400a40082020000d4
:020000040000fa
:0400a80082020000d0
:020000040000fa
:0400ac0082020000cc
:020000040000fa
:0400b00082020000c8
:020000040000fa
:0400b40082020000c4
:020000040000fa
:0400b80082020000c0
:020000040000fa
:0400bc0082020000bc
:020000040000fa
:0400c00082020000b8
:020000040000fa
:0400c40082020000b4
:020000040000fa
:0400c80082020000b0
:020000040000fa
:0400cc0082020000ac
:020000040000fa
:0400d00082020000a8
:020000040000fa
:0400d40082020000a4
:020000040000fa
:0400d80082020000a0
:020000040000fa
:04010800820200006f
:020000040000fa
:04010c00820200006b
:020000040000fa
:040110008202000067
:020000040000fa
:040114008202000063
:020000040000fa
:04011800820200005f
:020000040000fa
:04011c00820200005b
:020000040000fa
:040120008202000057
:020000040000fa
:040124008202000053
:020000040000fa
:04012800820200004f
:020000040000fa
:04012c00820200004b
:020000040000fa
:040130008202000047
:020000040000fa
:040134008202000043
:020000040000fa
:04013800820200003f
:020000040000fa
:04013c00820200003b
:020000040000fa
:040140008202000037
:020000040000fa
:040144008202000033
:020000040000fa
:04014800820200002f
:020000040000fa
:04014c00820200002b
:020000040000fa
:040150008202000027
:020000040000fa
:040154008202000023
:020000040000fa
:04015800820200001f
:020000040000fa
:04015c00820200001b
:020000040000fa
:040160008202000017
:020000040000fa
:040164008202000013
:020000040000fa
:04016800820200000f
:020000040000fa
:04016c00820200000b
:020000040000fa
:040170008202000007
:020000040000fa
:040174008202000003
:020000040000fa
:0401780082020000ff
:020000040000fa
:04017c0082020000fb
:020000040000fa
:0401800082020000f7
:020000040000fa
:0401840082020000f3
:020000040000fa
:0401880082020000ef
:020000040000fa
:04018c0082020000eb
:020000040000fa
:0401900082020000e7
:020000040000fa
:0401940082020000e3
:020000040000fa
:0401980082020000df
:020000040000fa
:04019c0082020000db
:020000040000fa
:0401a00082020000d7
:020000040000fa
:0401a40082020000d3
:020000040000fa
:0401a80082020000cf
:020000040000fa
:0401ac0082020000cb
:020000040000fa
:0401b00082020000c7
:020000040000fa
:0401b40082020000c3
:020000040000fa
:0401b80082020000bf
:020000040000fa
:0401bc0082020000bb
:020000040000fa
:0401c00082020000b7
:020000040000fa
:0401c40082020000b3
:020000040000fa
:0401c80082020000af
:020000040000fa
:0401cc0082020000ab
:020000040000fa
:0401d00082020000a7
:020000040000fa
:0401d40082020000a3
:020000040000fa
:0401d800820200009f
:020000040000fa
:10020000ef9020000eff20000e018800000000008b
:10021000000020000000e000020032000001200089
:100220002002880014000700b80007000000e0006a
:1002300003003a00c03e2000010020000200370009
:100240000000200001002000810f7000010032003a
:1002500014000700000020000000e000020032004f
:100260000000020000000000460202000000000042
:100270000040da000000fe004440a9000000200019
:100280000000e0000300320000002000a001880010
:100290004440a800000006008a1f78008b1f7800e9
:1002a0000000060091018800800478000000eb0047
:1002b0001a003700e284440032a0b4009905ba0065
:1002c000e284440032a0b4009906ba00e2844400fb
:1002d00032a0b4000006eb00476fde00fd07b2005d
:1002e000636ce10003003a00ebff07000000eb0045
:1002f0000a003700606ce10004003a00005deb008a
:100300008b05e900fdff3e00040037006168e10055
:10031000010032000086eb000b00070019c7ba008d
:100320001905ba000e04e00003003a000a00e000dc
:10033000e0ff3a0000000600fe07b2009e018800c0
:100340008a047800f5ff3700395dba008b05e900b3
:100350000c003200295dba008b05e900080032006c
:100360000c00e00003003a00e284440032a0b40034
:10037000f5ff370019ddba008b05e900faff3a00f6
:100380008904e800e184440032a0b40000000600c3
:10039000801f78003400f80000002000a0018800d1
:1003a0000000fa0000408000300c8800200480002b
:1003b0000060a100200488000080fa003400f900e9
:1003c0004f007800004006003600f800809fbe0015
:1003d000829fbe00849fbe00869fbe003400f8004e
:1003e00000002000a00188000400fa000000eb00db
:1003f00010079800604880000000e00018003a00f4
:1004000000000000001580000000e000fdff320049
:1004100000a020006b0007000000eb00000f780038
:100420000c0037001e0078000000400080007800bb
:100430000028200000804000100078004400de000a
:1004400010079800019020001e0090000101070095
:100450001e0fe8001e0078000000e000f1ff3400ed
:100460002004800000b0a100200488000080fa0071
:100470003400f9004f03be004f02be004f01be0022
:100480004f00be003600f900004006000400fa00ec
:100490000000eb00000f7800850007004148800055
:1004a00000488000b3002000a200200018000700d0
:1004b000409020005000070020488000e00eb0006f
:1004c0002048880087000700a8000700209020002f
:1004d0006900070010079800609020006600070080
:1004e000000f78009e009000014088009e00900060
:1004f000010f7800419020001e0078005000070096
:10050000f2ff37000040da000000fe0000000500a6
:020000040000fa
:100510000c00fa0020079800310798004207980065
:100520005307980000002c00100798009e009000d0
:100530004e00900001007000100798005e009000cf
:100540004400dd009e00900001007000100798003c
:100550002e009000400288002e009000f00eb000a7
:10056000500288003e009000600288003e0090002b
:10057000f00eb000700288001e009000300288006b
:10058000000000000000eb00000f780007003700bb
:1005900064004700800078000000eb00ad00070019
:1005a00066004700b40007001e0fe8007007200037
:1005b0009e007800808f5000f5ff34000080fa0024
:1005c000000006000200fa00000f78009e0078008c
:1005d00000f02000008060004002880000f0200051
:1005e0001e006000f00eb000500288000000000005
:1005f0000080fa00000006000400fa0010079800ce
:100600001e00900010007800eeff07000000eb00d5
:10061000000f7800040037009e0090000000eb00ff
:100620008c0007001e0fe800700720009e00780075
:10063000808f5000f8ff34000080fa0000000600b0
:100640000400fa00000f7800110798001000200045
:10065000604888001e00900010007800d9ff070055
:100660009e0090001e0078007a0007000c29ef0021
:100670000080fa00000006000400fa00100798004d
:1006800010002000604888001e00900010007800d4
:10069000ccff07001e00900072000700000f7800da
:1006a0000c29ef001e0078000080fa000000060010
:1006b0000000fa00c022ef00c622ef00cc22ef00bb
:1006c000d222ef00de22ef00c222ef00c822ef00ac
:1006d000ce22ef00d422ef00e022ef000080fa00eb
:1006e000000006000000fa003016800000c0a000e4
:1006f00030168800a022ef00400e20000015880070
:10070000a222ef0010158000101588009012200022
:1007100020158800c000200030158800f0ff200060
:1007200040158800aa22ef00c822ef00c104800013
:100730000000260001007000c00488002004800032
:1007400000b0a100200488006004800000b0a00078
:10075000600488000115800000002800010070007e
:10076000001588000080fa00000006000000fa0072
:1007700060002000500c88001021ef00f00f2000d6
:1007800060088800b1048000005020000100700063
:10079000b0048800200480000060a10020048800cc
:1007a000600480000060a000600488009016800053
:1007b0000010a100901688008621ef008821ef002c
:1007c0008108800000002800010070008008880077
:0807d0000080fa0000000600a1
:020000040000fa
:1007d800000900000200000002000000000a0000fa
:1007e800020900000200000002000000000a0000e8
:1007f800040900000200000002000000000b0000d5
:10080800060900000200000002000000000b0000c2
:10081800080900000200000002000000000c0000af
:100828000a0900000200000002000000000c00009d
:100838000008000002000000000000000c09000091
:0c084800020000000000000000000000a2
:020000040000fa
:1008540011057800001d78008a0878000000060061
:1008640080007800110578003a0078008a08780042
:100874000000060090057800801deb000b0878004e
:04088400000006006a
:020000040000fa
:0200000401f009
:04000000e3bf00005a
:020000040000fa
:0200000401f009
:04000400ff7f00007a
:020000040000fa
:0200000401f009
:04000800ffff0000f6
:020000040000fa
:0200000401f009
:04001400ffff0000ea
:020000040000fa
:0200000401f009
:04001800ffff0000e6
:00000001FF
