:020000040000fa
:080000000001040000000000f3
:020000040000fa
:04000800820300006f
:020000040000fa
:04000c00820300006b
:020000040000fa
:040010008203000067
:020000040000fa
:040014008203000063
:020000040000fa
:04001800820300005f
:020000040000fa
:04001c00820300005b
:020000040000fa
:040020008203000057
:020000040000fa
:040024008203000053
:020000040000fa
:04002800820300004f
:020000040000fa
:04002c00820300004b
:020000040000fa
:040030008203000047
:020000040000fa
:040034008203000043
:020000040000fa
:04003800820300003f
:020000040000fa
:04003c00820300003b
:020000040000fa
:04004000c8010000f3
:020000040000fa
:040044008203000033
:020000040000fa
:04004800820300002f
:020000040000fa
:04004c00820300002b
:020000040000fa
:040050008203000027
:020000040000fa
:04005400fc010000ab
:020000040000fa
:04005800820300001f
:020000040000fa
:04005c00820300001b
:020000040000fa
:040060008203000017
:020000040000fa
:040064008203000013
:020000040000fa
:04006800820300000f
:020000040000fa
:04006c00820300000b
:020000040000fa
:040070008203000007
:020000040000fa
:040074008203000003
:020000040000fa
:0400780082030000ff
:020000040000fa
:04007c0082030000fb
:020000040000fa
:0400800082030000f7
:020000040000fa
:0400840082030000f3
:020000040000fa
:0400880082030000ef
:020000040000fa
:04008c0082030000eb
:020000040000fa
:0400900082030000e7
:020000040000fa
:0400940082030000e3
:020000040000fa
:0400980082030000df
:020000040000fa
:04009c0082030000db
:020000040000fa
:0400a00082030000d7
:020000040000fa
:0400a40082030000d3
:020000040000fa
:0400a80082030000cf
:020000040000fa
:0400ac0082030000cb
:020000040000fa
:0400b00082030000c7
:020000040000fa
:0400b40082030000c3
:020000040000fa
:0400b80082030000bf
:020000040000fa
:0400bc0082030000bb
:020000040000fa
:0400c00082030000b7
:020000040000fa
:0400c40082030000b3
:020000040000fa
:0400c80082030000af
:020000040000fa
:0400cc0082030000ab
:020000040000fa
:0400d00082030000a7
:020000040000fa
:0400d40082030000a3
:020000040000fa
:0400d800820300009f
:020000040000fa
:04010800820300006e
:020000040000fa
:04010c00820300006a
:020000040000fa
:040110008203000066
:020000040000fa
:040114008203000062
:020000040000fa
:04011800820300005e
:020000040000fa
:04011c00820300005a
:020000040000fa
:040120008203000056
:020000040000fa
:040124008203000052
:020000040000fa
:04012800820300004e
:020000040000fa
:04012c00820300004a
:020000040000fa
:040130008203000046
:020000040000fa
:040134008203000042
:020000040000fa
:04013800820300003e
:020000040000fa
:04013c00820300003a
:020000040000fa
:040140008203000036
:020000040000fa
:040144008203000032
:020000040000fa
:04014800820300002e
:020000040000fa
:04014c00820300002a
:020000040000fa
:040150008203000026
:020000040000fa
:040154008203000022
:020000040000fa
:04015800820300001e
:020000040000fa
:04015c00820300001a
:020000040000fa
:040160008203000016
:020000040000fa
:040164008203000012
:020000040000fa
:04016800820300000e
:020000040000fa
:04016c00820300000a
:020000040000fa
:040170008203000006
:020000040000fa
:040174008203000002
:020000040000fa
:0401780082030000fe
:020000040000fa
:04017c0082030000fa
:020000040000fa
:0401800082030000f6
:020000040000fa
:0401840082030000f2
:020000040000fa
:0401880082030000ee
:020000040000fa
:04018c0082030000ea
:020000040000fa
:0401900082030000e6
:020000040000fa
:0401940082030000e2
:020000040000fa
:0401980082030000de
:020000040000fa
:04019c0082030000da
:020000040000fa
:0401a00082030000d6
:020000040000fa
:0401a40082030000d2
:020000040000fa
:0401a80082030000ce
:020000040000fa
:0401ac0082030000ca
:020000040000fa
:0401b00082030000c6
:020000040000fa
:0401b40082030000c2
:020000040000fa
:0401b80082030000be
:020000040000fa
:0401bc0082030000ba
:020000040000fa
:0401c00082030000b6
:020000040000fa
:0401c40082030000b2
:020000040000fa
:0401c80082030000ae
:020000040000fa
:0401cc0082030000aa
:020000040000fa
:0401d00082030000a6
:020000040000fa
:0401d40082030000a2
:020000040000fa
:0401d800820300009e
:020000040000fa
:100200006f8320000eff20000e0188000000000018
:10021000000020000000e000020032000001200089
:100220002002880014000700380107000000e000e9
:1002300003003a0080612000010020000200370026
:100240000000200001002000810f7000010032003a
:1002500014000700000020000000e000020032004f
:100260000000020000000000660202000000000022
:100270000040da000000fe004440a9000000200019
:100280000000e0000300320000002000a001880010
:100290004440a800000006008a1f78008b1f7800e9
:1002a0000000060091018800800478000000eb0047
:1002b0001a003700e284440032a0b4009905ba0065
:1002c000e284440032a0b4009906ba00e2844400fb
:1002d00032a0b4000006eb00476fde00fd07b2005d
:1002e000636ce10003003a00ebff07000000eb0045
:1002f0000a003700606ce10004003a00005deb008a
:100300008b05e900fdff3e00040037006168e10055
:10031000010032000086eb000b00070019c7ba008d
:100320001905ba000e04e00003003a000a00e000dc
:10033000e0ff3a0000000600fe07b2009e018800c0
:100340008a047800f5ff3700395dba008b05e900b3
:100350000c003200295dba008b05e900080032006c
:100360000c00e00003003a00e284440032a0b40034
:10037000f5ff370019ddba008b05e900faff3a00f6
:100380008904e800e184440032a0b40000000600c3
:10039000809fbe003400f80000002000a00188000b
:1003a0000000fa00200480000060a1002004880002
:1003b00080418000800040000081200000804000db
:1003c000100078004480de00300c880080418000fe
:1003d0000000e8008041880080418000e80f500064
:1003e00001003a003028ef000080fa003400f900e4
:1003f0004f00be0000400600809fbe00821f7800b4
:100400003400f80000002000a00188000200fa007b
:1004100000000000001580000000e000fdff320039
:100420000000eb00000f78001d00370090418000b5
:100430009141800001814000018020008100410045
:10044000910078000001400000822000000041007f
:1004500001087800904180009e0078008180400073
:1004600001017800012820008100410091007800fe
:1004700000014000008020000000410001087800d9
:10048000904180000000e800904188009041800089
:10049000e80f500001003a003228ef001e0fe8007c
:1004a0001e007800e70f5000e0ff340020048000b9
:1004b00000b0a100200488000080fa003400f90098
:1004c0004f0178004f00be00004006000400fa0013
:1004d000889fbe000000eb00000f7800c022ef00f4
:1004e000c622ef00cc22ef00d222ef00de22ef0086
:1004f000c222ef00c822ef00ce22ef00d422ef008c
:10050000e022ef000000eb00100798001500370014
:100510001e0090008000400000812000008040000c
:100520008000eb00010878001e0090008000400071
:1005300000802000008040008000eb00010878006f
:100540001e009000800040000082200000804000db
:100550008000eb00010878001e0090000000e80019
:10056000100798001e009000e70f5000e8ff3400cd
:1005700026000700480007000100370000000000c7
:100580001e007800800040000080200000804000b5
:1005900010007800cf80de00dc0007000004be0001
:1005a0001e00780080004000008220000080400093
:1005b00010007800cf80de00d40007000200200089
:1005c00003f02300270107000001be000800be0061
:1005d00050000700ac000700800078001e00780083
:1005e0000001400000812000000041000108780067
:1005f0001e0fe8001e007800e80f5000dfff3a00f1
:100600000000eb00000f7800ddff37000000fa006b
:100610003016800000c0a00030168800a022ef0035
:10062000400e200000158800a222ef001015800067
:10063000c001b3001015880090122000201588001a
:10064000c000200030158800f0ff20004015880011
:10065000aa22ef00c822ef00c1048000000026009b
:1006600001007000c00488002004800000b0a100d8
:10067000200488006004800000b0a00060048800ae
:10068000011580000000280001007000001588009e
:100690000080fa00000006000000fa006000200060
:1006a000500c88001021ef00f00f20006008880037
:1006b000b10480000050200001007000b0048800e8
:1006c000200480000060a1002004880060048000f5
:1006d0000060a00060048800901680000010a10057
:1006e000901688008621ef008821ef0081088000a5
:1006f0000000280001007000800888000080fa00d7
:10070000000006000040da000000fe0000000500c6
:1007100003f0a200889fbe008a9fbe008c1f780055
:10072000b8000700bf0033006450e1004f00320002
:100730006420e1005200320003826c0007003b009d
:100740000905d0000306d000820f54000c065d009e
:1007500002003900020032008901780003067800a7
:100760008582550004003d000003fd008103fd006b
:100770008502ea008b854200840f720002003b0074
:1007800060001000e08018006011b8000005eb0068
:100790007a28e1000a00390006007800c75ddd0014
:1007a000f707b200878075002d0037008281710045
:1007b0000a017800610560008180d1000080d300cb
:1007c0008502e900f9ff3b000604400087844800e9
:1007d00002003b0060041400e0841c000988a300b0
:1007e000070032008a81710082817100610164001a
:1007f0008904d1000884d3008b05e8001700370076
:100800000978a30013003a000b00e0001300340045
:100810008b05e9000804440089844c000a447400f4
:100820000978a3000d003a000b00e0000700340037
:100830008b05e9000804440089844c0001003a005b
:100840000b0020000978a300f7ff32000001eb0045
:1008500002003700828171000a0178002e00070033
:100860000cf0a70001f0a000770037006420e10041
:1008700002003a00838f6c00770033000801be004d
:100880000200be00700037000001be0048000700f3
:100890000470a70003f0a1006509b1001600320042
:1008a0000d0035006828e10006003500f0ff2f003c
:1008b000f1ff27000300e00013003b0001002800c7
:1008c0000000050000004000818048008502e9002a
:1008d000fcff3a0008003700f88f420002003c009d
:1008e0008000eb00000005008100d1000080d300f3
:1008f0008502e800fcff3a000300e00002003b0034
:1009000060001000e0801800000006004f89de0043
:100910008201780087003700810020006180550047
:100920000b003d000b00200061fe2f000100e100e4
:100930001d00340082817100610164008904d100ce
:100940000884d3000000e800faff3a00710020009c
:1009500061006400030070000200600009003200c2
:1009600061044400e0844c000988a50005003200c1
:100970008b05e8006808e10002003a008904d10014
:100980000884d300f20f20000258e10005003d006a
:10099000c75ddd00f907b2008980750008007800a6
:1009a000000006000bf827008b007800000005000f
:1009b000c70ade00f107b200f50fb20008003200ee
:1009c000e1cf4200020032000170a00024000500c7
:1009d000810f70000100320004080500440005008a
:1009e000810f700002003a00140005008502e90042
:1009f0000000400081c04800fcff3b000170a000e7
:100a0000240005000004be00e9ff07000003be004b
:100a10000405be000200be00e5ff0700844f75001c
:100a2000000006000200be006450e1000500360030
:100a30006420e100020036000968a30001003a00ca
:100a40000800be000160a0004f0678004f05be0000
:100a50004f04be0000000600f0ff2f00f1ff27004a
:100a6000f9ff3700889fbe008a9fbe008c1f780068
:100a7000e4ff0700ebff330003866c006450e100e5
:100a8000240032006420e100270032006150e100c0
:100a9000220032006120e100210032008b854200fb
:100aa000eb07b1000134b800003ab8000804420076
:100ab00089844a00013ab8000030b80088804000bc
:100ac00009014a0004003300000040008180480012
:100ad000020149008b05e900c909dd0083017000ae
:100ae0000100320013002000c814de004814dd00ad
:100af0004709de001200b200c808de00088470005a
:100b000085ff070001f0a1000cf0a70001f0a00094
:100b1000cdff37006120e100cfff32000801be00a9
:100b20000200be00f7ff37006150e100fcff3a0011
:100b3000c9ff3700881f7800030478000300e00035
:100b400007003d0060001000e080180060011900ff
:100b5000e081190002003b0001f02d000300370086
:100b60000400070008f0a70001f0a0004f0478007f
:100b700000000600889fbe008a9fbe0000827000b1
:100b80000402710004827100260032000004be00dd
:100b90000200be006011b8006b0920009502200021
:100ba0000182cf000a0039000541b1000082cf0068
:100bb000070039000541b1000982cf000400390067
:100bc0000541b1000882cf00010039000541b100a4
:100bd00005425200120032000a003b00828171007f
:100be000610164008100d1000080d3008984d300ba
:100bf0000884d3008b05e8000442e800f7ff3a00c0
:100c0000070037000804440089844c0000004800b5
:100c1000818048008b05e9000442e900f9ff3a00b1
:100c20003dff07004f05be004f04be000000060058
:020000040000fa
:100c30000008000036000000000000000000000076
:020000040000fa
:0200000401f009
:04000000e3bf00005a
:020000040000fa
:0200000401f009
:04000400ff7f00007a
:020000040000fa
:0200000401f009
:04000800ffff0000f6
:020000040000fa
:0200000401f009
:04001400ffff0000ea
:020000040000fa
:0200000401f009
:04001800ffff0000e6
:00000001FF
