:02000000602975
:1000060083120313F801F9011030FC00710DF80D8D
:10001600F90D7408F8027508031C750FF902031828
:100026001B287408F80775080318750FF9070310DD
:0A003600F00DF10DFC0B0928080085
:0400400000000800B4
:0E004400073083120313FD00FD0B2628080071
:10005200803083160313AF00AE092F0803194A2814
:100062002F082E05F10071080130031D0030F00049
:1000720070183E2883128713402883128717202086
:10008200202006172220061322208316AF0CAF135E
:040092002E2808000C
:10009600831603139818512800004B282E08831244
:0400A60099000800B5
:1000AA0083160313B101053031020318632831089E
:1000BA003007840020308000B10A58283108300700
:1000CA0084008001B10331083007B2000A30F4001D
:1000DA00F5012E08F0002F08F10003207808F0003F
:1000EA007908F1003030F00783163208840070086E
:1000FA0080000A30F400F5012E08F0002F08F10004
:10010A00032070088316AE007108AF000030710634
:10011A00031D912800307006031D94289628B10308
:04012A006828080039
:0E012E008316031321088A00200882000800AF
:0E013C000030831203138C1A0130F00008000B
:10014A008316031398169030831298008316861626
:10015A00861383128C1EB4281A08F000AE280800F1
:10016A00831603132708AE0029202508AE0029208C
:02017A0008007B
:10017C00831203131A08F100981CC62818121816BB
:06018C007108F0000800FC
:100192008316031306168713061383120612871398
:0401A2000613080038
:1001A60083160313A601A701260825078400000865
:1001B600003A0319E9282608250784000008AE003E
:0E01C6004B208316A60A0319A70AD7280800A3
:1001D40097208A110A128000840AA00A0319A10A2E
:0801E400F003031DEA280800E6
:1001EC0083160313AA01AB012508AC002608AD0049
:1001FC0080302606F00080307002031D0729003085
:10020C002502031815290130AA000030AB0025087F
:10021C00003CAC002608031C013EAD01AD022C08CD
:10022C00AE002D08AF002708B00055200630A800FE
:10023C000030A9002908003C031D26292808003C91
:10024C000318412928082707F20001302802F00082
:10025C000030031C013E2902F100700827078400BE
:10026C000008F00072088400700880000130A802B9
:10027C00031CA903202927088400203080002A08A9
:10028C002B0403195F29A801A9012808270784005A
:10029C000008203A031D5629A80A0319A90A4B295C
:1002AC000130A802031CA9032808270784002D305D
:0402BC0080000800B6
:1002C0008422FF30831603138700FF308600FF303F
:1002D0008500831203179E019F0199139A13C92069
:1002E0001930831699001815A5208B018316A301D8
:1002F000A40180302406F00080307002031D8229A2
:100300008230230203188C296130AE004B20831603
:10031000A30A0319A40A7929831220088316A500C9
:10032000831221088316A600A701A801B520A30106
:10033000A40180302406F00080307002031DA22941
:10034000823023020318AC296130AE004B208316A3
:10035000A30A0319A40A99290B30FB002630FC00DC
:100360005D30FD00FD0BB229FC0BB229FB0BB2295D
:10037000000000002E30A500D3209E207008031D31
:10038000C229BD29BE2070088316A2007008613AF8
:10039000031DF129803083122106F00080307002A5
:1003A000031DD429803020020318D929A00A03197B
:1003B000A10A20088316A500831221088316A6002F
:1003C000A701A801B520831220088316A500831277
:1003D00021088316A6001030A7000030A800B52021
:1003E000202A22087A3A031D1D2A8030F00080302E
:1003F000831221067002031DFF292008003C031808
:10040000052A0130A002031CA10320088316A500C1
:10041000831221088316A600A701A801B520831224
:1004200020088316A500831221088316A600103029
:10043000A7000030A800B520202A5430A500D32002
:100440002230A500D3202530A500D3208312200818
:100450008316A500831221088316A6006630A70024
:10046000F6206630A500D3202230A500D320BA297B
:02047000382A28
:1005080020308400463083120313F0003E308316F7
:0A051800A0000230A100EA20080054
:04047C000034003414
:060480000D340A340034C3
:10048600763461346C347534653420343D3420342C
:02049600003430
:100498004634723465347134753465346E3463347B
:1004A80079343A34703472346534733473342034A4
:1004B8006134203474346F342034723461346934D4
:1004C800733465342C347A34203474346F342034E3
:0C04D8006C346F347734653472340034B7
:1004E4000D340A3449346E34763461346C346934EE
:1004F4006434203445346E347434723479340D34B5
:040504000A34003481
:02400E00F20FAF
:00000001FF
