:02000000BE2917
:10000800FF00030E8301C8000A08C9008A01A00A7C
:100018000319A10A8B1049088A00480E8300FF0EB5
:040028007F0E09003E
:10002C0083120313F801F9011030FC00710DF80D67
:10003C00F90D7408F8027508031C750FF902031802
:10004C002E287408F80775080318750FF9070310A4
:0A005C00F00DF10DFC0B1C2808004C
:1000660083120313D6010530560203184128560899
:100076005507840020308000D60A362856085507D2
:1000860084008001D60356085507D7000A30F400CD
:10009600F5015308F0005408F10016207808F00026
:1000A6007908F1003030F0075708840070088000A6
:1000B6000A30F400F5015308F0005408F100162048
:1000C6007008D3007108D40000307106031D6D2836
:1000D60000307006031D70287228D60346280800D3
:1000E600831603139818792800007328831253087F
:0400F6009900080065
:0E00FA00831203133B088A003A0882000800B4
:0E010800073083120313FD00FD0B882808004A
:1001160083120313FB01FA01F9018030F800F10C98
:10012600F00C031C9F287408F90775080318750F4F
:10013600FA070318FB0A0310F01FA7287408FA072A
:1001460075080318750FFB07FB0CFA0CF90CF80C75
:10015600031C92287B08F3007A08F2007908F10064
:060166007808F00008001B
:10016C0083120313CF01D0014A08D1004B08D200EF
:10017C0080304B06F00080307002031DC728003021
:10018C004A020318D5280130CF000030D0004A08AD
:10019C00003CD1004B08031C013ED201D202510895
:1001AC00D3005208D4004C08D50033200630CD00C3
:1001BC000030CE004E08003C031DE6284D08003CE4
:1001CC00031801294D084C07F20001304D02F000D4
:1001DC000030031C013E4E02F10070084C078400F5
:1001EC000008F00072088400700880000130CD0215
:1001FC00031CCE03E0284C088400203080004F08FC
:10020C00500403191F29CD01CE014D084C07840061
:10021C000008203A031D1629CD0A0319CE0A0B2912
:10022C000130CD02031CCE034D084C0784002D3049
:04023C008000080036
:100240007D208A110A128000840ABA0A0319BB0AA7
:08025000F003031D2029080042
:100258008316031398169030831298008316861617
:10026800861383128C1E3B291A08F00035290800D2
:10027800831603131208013EF000F1010318F10A76
:1002880083124A08F400F5018B200630F20070084A
:10029800F4007108F500720803195729F50CF40CDD
:1002A800F513FF3E50290430F1007408F00071087E
:1002B80003196229F00D7010FF3E5C29303070057B
:1002C800F3007408F0007508F100F10CF00CF1135C
:1002D800F10CF00CF113700895000F3097057308B6
:0402E800970408006F
:1002EC00C330831203139F0540309F05F0308316F3
:1002FC009F0483129F174A08F000F00D7010F00D48
:10030C00701070089F041F1484209F149F1C902948
:10031C0000008C291F101E08F100F00183161E0826
:08032C00F0040030F1040800A8
:1003340083120313CB01CC014B084A078400000845
:10034400003A0319AF294B084A0784000008D30078
:0C0354007320CB0A0319CC0A9E29080074
:10036000831603138712831212150C3097040800AA
:0C03700083120313950117129712080066
:10037C0083120313A001A101A2017330A3007030FA
:10038C00A4006530A5006530A6006430A7002030BD
:10039C00A8003D30A9002030AA00AB010D30AC0004
:1003AC000A30AD00AE016330AF006F30B000753075
:1003BC00B1006E30B2007430B3006530B4007230EE
:1003CC00B5002030B6003D30B7002030B800B90180
:1003DC00143083168500860187018312870104304F
:1003EC0003179E0099139A1319308316031399005F
:1003FC0018152C2112109210C73083169200B821B8
:10040C0090308B0483160117B0212208CA003C21BE
:10041C000330CA0076210330F4000030F5001620BA
:10042C007008BC007108BD0000302102031D202A99
:10043C003230200203182D2A3C08A2003C303C022A
:10044C000318292AA2012208CA003C212F2ACA011A
:10045C003C212330CA009A213C08CA003D08CB003D
:10046C003E30CC00B6203E30CA009A212F30CA0054
:10047C009A212008CA002108CB003E30CC00B620BF
:10048C003E30CA009A212C30CA009A210E2A4D2ADD
:02400E00F20FAF
:00000001FF
