:02000000302AA4
:10000800FF00030E8301B8000A08B9008A017008CE
:10001800A2007108A1007D08A000861F1628AA0169
:10002800AB011A280130AA000030AB000330F200FF
:100038002A08F0002B08F100720803192828F00D8F
:10004800F10D7010FF3E21282C08F0072D08031829
:10005800013EF107F00A0319F10A7008A7007108B8
:10006800A80001307002BA000030031C013E710282
:10007800BB000C30F4000030F5003A08F0003B08F3
:10008800F10093217808F0007908F1007008A900C0
:100098000C30F4000030F5003A08F0003B08F1009D
:1000A800932132087007AE00B401B5016030AF008B
:1000B800B001B101061C65280130B4000030B5005C
:1000C800992886186A2806196A2875280130B00008
:1000D8000030B100061D74280130B4000030B500AE
:1000E800992886197A28061A7A2885280230B000B5
:1000F8000030B100061E84280130B4000030B5007D
:100108009928861E8C280230B4000030B500992842
:10011800071C93280330B4000030B5009928871CC9
:1001280099280430B4000030B5002E08F0000C30D7
:10013800F40017222908F0077F30F0057008A400A2
:100148000430F0077008A50003307007A60080305F
:10015800F000803031067002031DB4283008003CDE
:100168000318C5280C30A4078030F0008030310611
:100178007002031DC1283008013C0318C5280C3043
:10018800A5078030F000803035067002031DCE28A8
:100198003408003C0318FB2880303506F000803016
:1001A8007002031DD928033034020318E828A50378
:1001B8008030F000803035067002031DE5283408D1
:1001C800013C0318E828A60300303506031DEE2875
:1001D80003303406031DF128A60A00303506031D36
:1001E800F72804303406031DFB280230A50290309E
:1001F800BC002308BD002408BE002F08BF00082249
:100208009030BC002308BD002508BE002F08BF00A1
:1002180008229030BC002308BD002608BE002F0825
:10022800BF000822061B1B29861B1B291C2916290F
:100238008030BC002308BD002408BE002F08BF0082
:1002480008228030BC002308BD002508BE002F0806
:10025800BF0008228030BC002308BD002608BE006D
:100268002F08BF000822FE308B052208F000210865
:10027800F1002008FD0039088A00380E8300FF0EBF
:040288007F0E0900DC
:10028C008316031398184C29000046298312400842
:04029C0099000800BD
:1002A000710DF80DF90D7408F8027508031C750F2F
:1002B000F902F00DF10D0F30FC00710DF80DF90D84
:1002C0007408701C6929F8027508031C750FF9027F
:1002D0006E29F80775080318750FF907F00DF10D71
:1002E000FC0B5D2970187A297408F8077508031843
:0802F000750FF907000008007A
:0E02F8008312031337088A00360882000800BC
:100306008316031398169030831298008316871766
:10031600071383128C1E92291A08F0008C290800F4
:10032600831203137408003A031DA2297508003AC4
:10033600031DA229FF30F0007F30F100FB29831254
:100346000313FD01F901F801710870040319003463
:1003560071087506FA00FA1BFD09FB01F51FB8299D
:10036600F409F509F40A0319F50AF11FBF29F00982
:10037600F109F00A0319F10A71087504FA00FA1B6B
:10038600D42950217B18E729FD1F0034F009F10913
:10039600F00A0319F10AF809F909F80A0319F90A22
:1003A6000034F51FE329F11BDF297108F9007008F5
:1003B600F800F101F001C729F101F001F00A00345B
:1003C600F109F009FB0AC429F80A0319F90A7408A5
:1003D6007802031DC72975087902031DC729F9018B
:1003E600F801F00A0319F10AF11FC7290000FF34CA
:0203F6000800FD
:1003F8007C218A110A128000840AB60A0319B70AF6
:08040800F003031DFC290800AC
:10041000831203133D083C07C00046217F303E0590
:0E042000C00046217F303F05C0004621080085
:10042E00831203137008F100F0010830FC0071080C
:10043E00F40C0318262AFC0B1F2AF10100340310BA
:10044E002B2AF40C0318F107F10CF00CFC0B282AE4
:02045E00080094
:1004600083120313A301A401A501A601A701A801FA
:10047000A901AA01AB010830AC00AD01AE01AF018A
:10048000B001B1010430B200B301B401B50183166B
:100490008501FF30860003308700831285018701C4
:1004A0008316031788018901831287138813831623
:1004B000031395010730990018158321C030831666
:1004C000960088308B0401308312AC02031CAD030C
:1004D0002C08F1000130F00071080319732AF00DA7
:1004E0007010FF3E6D2A8312700885004230FD00B7
:1004F000FD0B782A000000302D06031D812A0030F4
:100500002C06031D872A0830AC000030AD00632A9A
:02051000882A37
:04400E00F42F000784
:00000001FF
